:020000040800F2
:1000000030D70120310200083D2800085F26000893
:1000100039280008F5040008912A000800000000B3
:10002000000000000000000000000000AD290008F2
:100030004D0700080000000041280008AF29000813
:100040004B0200084B0200084B0200084B0200085C
:100050004B0200084B0200084B0200084B0200084C
:100060004B0200084B0200084B0200084B0200083C
:100070004B0200084B0200084B0200084B0200082C
:100080004B0200084B0200084B0200084B0200081C
:100090004B0200084B0200084B0200084B0200080C
:1000A0004B0200084B0200084B0200084B020008FC
:1000B000812A00084B0200084B0200084B0200088E
:1000C0004B0200084B0200084B0200084B020008DC
:1000D0004B0200084B0200084B0200084B020008CC
:1000E0004B0200084B0200084B0200084B020008BC
:1000F0004B0200084B0200084B0200084B020008AC
:100100004B0200084B0200084B0200084B0200089B
:100110004B0200084B0200084B0200084B0200088B
:100120004B0200084B0200084B0200084B0200087B
:100130004B0200084B0200084B0200084B0200086B
:10014000550500084B0200084B0200084B0200084E
:100150004B0200084B0200084B0200084B0200084B
:100160004B0200084B0200084B0200084B0200083B
:100170004B0200084B0200084B0200080000000080
:100180004B0200084B02000800F002F800F03CF8B7
:100190000AA090E8000C82448344AAF10107DA45E2
:1001A00001D100F031F8AFF2090EBAE80F0013F0F8
:1001B000010F18BFFB1A43F001031847682A00001B
:1001C000882A0000103A24BF78C878C1FAD85207AC
:1001D00024BF30C830C144BF04680C6070470000C1
:1001E0000023002400250026103A28BF78C1FBD840
:1001F000520728BF30C148BF0B6070471FB502F0DF
:10020000FFFC1FBD10B510BD00F0D3F81146FFF77D
:10021000F5FF02F07FFC00F0F1F803B4FFF7F2FF06
:1002200003BC00F0F9F8000080F308887047000074
:100230000948804709480047FEE7FEE7FEE7FEE77A
:10024000FEE7FEE7FEE7FEE7FEE7FEE704480549B6
:10025000054A064B704700006D2A00088901000816
:1002600030D1012030D7012030D3012030D30120FC
:1002700053EA020C00F069802DE9F04B4FF00006C4
:10028000002B1FBFB3FA83F503FA05F424FA05F631
:100290005E4012BF1643B2FA82F502FA05F4C5F1C8
:1002A00020051EBF22FA05FC44EA0C04203556EA5C
:1002B000044C4FEA144418BF641C4FF000084FF080
:1002C0000009904271EB030C39D3002919BFB1FA30
:1002D00081F701FA07F6B0FA80F700FA07F6C7F1DE
:1002E00020071EBF20FA07FC46EA0C062037B6FBA3
:1002F000F4FCA7EB0507103F07F01F0BCBF120061E
:100300000CFA0BFB2CFA06F644BFB3460026202F4E
:10031000A4BF5E464FF0000B5BEA060C08BF4FF02F
:10032000010B19EB0B09ABFB027C48EB0608C01B69
:1003300006FB02CC0BFB03CC71EB0C01C1E70B46B7
:10034000024641464846BDE8F08B13B54FF0000029
:100350004FF00001AFF30080BDE81C4070474FF044
:10036000000200B5134694469646203922BFA0E805
:100370000C50A0E80C50B1F12001BFF4F7AF090711
:1003800028BFA0E80C5048BF0CC05DF804EB890002
:1003900028BF40F8042B08BF704748BF20F8022B45
:1003A00011F0804F18BF00F8012B7047704770475D
:1003B0007047754600F02CF8AE4605006946534676
:1003C00020F00700854618B020B5FFF73FFFBDE8D5
:1003D00020404FF000064FF000074FF000084FF0AC
:1003E000000B21F00701AC46ACE8C009ACE8C0093D
:1003F000ACE8C009ACE8C0098D46704710B50446AA
:10040000AFF300802046BDE81040FFF706BF0000B4
:1004100000487047CCD0012001491820ABBEFEE750
:10042000260002007047000000212C4A11700721AD
:100430002B4A117000212B4A11702B4A11702B4A44
:10044000117001222A4981F8C228002281F8BD28B2
:10045000A1F8B02881F8C328C1F8B80840F2F261C9
:10046000B0FBF1F18AB22249A1F8B22840F2F26160
:10047000B0FBF1F201FB120139B11D49B1F8B2181C
:10048000491C8AB21A49A1F8B22840F2F261B0FBC5
:10049000F1F201FB12010722B1FBF2F1CAB21449D9
:1004A00081F8B42840F2F261B0FBF1F201FB1201D5
:1004B0000722B1FBF2F302FB13120D4981F8BC28AD
:1004C00091F8BC18002907DD094991F8B418491CB6
:1004D000CAB2074981F8B4287047000000C0012063
:1004E00001C001200BC001200CC0012002C001206E
:1004F0000030002000BFFEE710B58AB004460E2091
:10050000059000200690012007900020009049F6F9
:10051000A40001904FF6FF70029003900020049019
:10052000012008901C2009906946204600F074FBC9
:1005300008B100F00CF9204600F057FF08B100F0B8
:1005400006F90221204600F0A7FA08B100F0FFF8F2
:100550000AB010BD10B5024800F0C9FC10BD000083
:100560003CD0012070B588B005460E461446029472
:100570000394042004900020059001208DF81C00B5
:10058000069600BF084800F097FC0028FAD001AB9F
:100590002A4602A9044800F094FA10B1012008B0DC
:1005A00070BD0020FBE700003CD001200220034981
:1005B0000870012002490870704700000BC001203C
:1005C0000CC00120012002490870024908707047E0
:1005D0000BC001200CC0012010B504462078FF2874
:1005E0000FD161780906A27841EA0241E27841EA36
:1005F0000221227941EA0200FFF716FFFFF7E2FF2E
:1006000010BD4E4890F8C30800B18DE02078F0B9D5
:10061000A078617840EA0121484890F8BD088142FD
:1006200004D00221454880F8C3187DE001214348E9
:1006300080F8C2180021A0F8C018A079617940EABA
:1006400001213E48A0F8BE18FFF7BCFFD8E720788C
:10065000002868DD2078FF2865DA384890F8C2085D
:100660002178884204D00221344880F8C3185BE026
:10067000324890F8C208401CC1B2304880F8C21815
:1006800090F8BD08401C2D49B1F8B218884208DA2C
:100690002A4890F8C208FF281CD101202849087078
:1006A00018E0264890F8C208401E244991F8B41872
:1006B00088420FD1012022490870204890F8BC08D8
:1006C000002804DD1D4890F8BC081E490870012070
:1006D0001D4908701B480178601C02F0DBF91848BE
:1006E0000078012816D11548B0F8BE18B0F8C00837
:1006F000814204D00221114880F8C31814E00F4849
:1007000090F8BD08401CC1B20C4880F8BD1800200C
:100710000B4908700C480078012802D102200A49D0
:100720000870FFF74FFF00BF044890F8C308022885
:1007300001D1FFF73BFF00BF62E70000003000205F
:1007400000C0012001C0012002C00120704772B624
:1007500000BFFEE710B5002201B909E0012901D16F
:100760000A0205E0022901D10A0201E04FF44072B9
:100770000E4B1B6823F440730C4C236023461B680C
:100780001343236023461B6823F0F80323602346AA
:100790001B68022444EAC0042343044C236023461C
:1007A0001B6843F48033236010BD0000103C0240FE
:1007B0001C48006800F40070B0B11A48006820F4CA
:1007C00000701849086000BF0846006840F40060E7
:1007D00008600846006820F40060086000BF084612
:1007E000006840F4007008600E48006800F4806003
:1007F000B0B10C48006820F480600A49086000BF6E
:100800000846006840F4805008600846006820F4FC
:100810008050086000BF0846006840F480600860AF
:1008200070470000003C02400A4A126822F44072FD
:10083000084B1A601A46126842F004021A601A46FF
:1008400012684FF4803343EA00231A43014B1A60C5
:1008500070470000103C0240074A126822F44072C0
:10086000054B1A601A4612681A601A46126842F05E
:1008700001021A6001707047103C024010B50D492A
:10088000096821F440710B4C21602146096841F44C
:10089000407121602146096841F001012160026038
:1008A00000BF00BF00BFBFF36F8F00BF00BF00BF1E
:1008B000436010BD103C0240084A126822F44072A6
:1008C000064B1A601A46126842F480721A601A4681
:1008D000126842F001021A6001807047103C024029
:1008E000084A126822F44072064B1A601A461268CF
:1008F00042F400721A601A46126842F001021A604D
:1009000001607047103C02402348006800F010006E
:1009100040B12248C06940F010002049C861102051
:100920001D4908601C48006800F0200040B11B48C9
:10093000C06940F008001949C861202016490860C4
:100940001548006800F0400040B11448C06940F00C
:1009500004001249C86140200F4908600E48006831
:1009600000F0800040B10D48C06940F002000B4922
:10097000C8618020084908600748006800F002004C
:1009800040B10648C06940F020000449C861022017
:1009900001490860704700000C3C0240ACD00120C7
:1009A00070B50446002500201449C86100F0DEFF40
:1009B000054609E0601C38B124B100F0D7FF401BA8
:1009C000A04201D9032070BD0D48006800F48030BA
:1009D0000028EFD10A48006800F0010010B10120A2
:1009E000074908600648006800F0F20018B1FFF7F8
:1009F0008BFF0120E7E70020E5E70000ACD00120F5
:100A00000C3C0240014600201C4A914203D2B1F145
:100A1000006F00D330E01A4A914204D2174A914243
:100A200001D3012028E0174A914204D2144A91428E
:100A300001D3022020E0144A914204D2114A91428B
:100A400001D3032018E0114A914204D20E4A914288
:100A500001D3042010E00E4A914204D20B4A914285
:100A600001D3052008E00B4A914204D2084A914282
:100A700001D3062000E00720704700000040000876
:100A80000080000800C00008000001080000020803
:100A9000000004080000060810B5024692F8203055
:100AA000012B01D0022B06D110684069084314685D
:100AB0006061002010BD506A40F480205062012027
:100AC000F8E7F0B504460D461E4694F820702068FD
:100AD0008368A86800B900E000BF012F01D0022F91
:100AE0007CD103F0806030B903F0006018B903F0E6
:100AF0008050002873D0C3F30161022905D9606AD0
:100B000040F4000060620120F0BD012088403060A8
:100B1000A86860B9B5F800C0E86840EA4C5C206895
:100B200000F5C07000EB0110C0F800C00FE0D5E97F
:100B300001C040EACC00D5F80CC040EA0C00D4F863
:100B400000C00CF5C07C0CEB011CCCF80000D5F803
:100B500010C0206800F5C07000EB0110C0F804C0A0
:100B6000287D01280ED1206800F5C07000EB01102F
:100B7000406840F4807C206800F5C07000EB0110F4
:100B8000C0F804C0D079000692F806C040EA0C40D4
:100B900092F805C040EA0C2C10794CEA000C206851
:100BA00000F5C07000EB0110C0F80CC0D078000652
:100BB00092F802C040EA0C4092F801C040EA0C20D2
:100BC00092F800C040EA0C00D4F800C00CF5C07CDC
:100BD0000CEB011CCCF80800206801E016E00FE0E7
:100BE00000F5C07000EB0110006840F0010C2068B7
:100BF00000F5C07000EB0110C0F800C0002083E7D2
:100C0000606A40F40010606201207DE7606A40F491
:100C100080206062012077E7F0B504460A4621682B
:100C200094F82050012D01D0022D7ED1424901F5CA
:100C30000071086840F001000860086820F47C50EA
:100C400008600868566A40EA06200860107D00F0D7
:100C50001F06012000FA06F3C8699843C861A1F590
:100C60000071D069C8B9D1F80C029843C1F80C02E0
:100C7000908880B2968940EA064601F5107057695F
:100C800040F83760108880B2168940EA064601F5C0
:100C90001070576900EBC7004660D069012819D170
:100CA000D1F80C021843C1F80C02908880B2168863
:100CB00040EA064601F51070576940F837609089A0
:100CC00080B2168940EA064601F51070576900EBBC
:100CD000C7004660906928B9D1F804029843C1F86A
:100CE000040204E0D1F804021843C1F804021069B8
:100CF00028B9D1F814029843C1F8140204E0D1F8DD
:100D000014021843C1F81402106A012804D1D1F862
:100D10001C021843C1F81C02D1F8000220F00100A7
:100D2000C1F800020020F0BDFFE7606A40F48020B7
:100D300060620120F7E7000000640040704770B572
:100D4000044694F82050012D01D0022D7DD151B9D7
:100D50002068C06800F0030080B9606A40F40010A9
:100D60006062012070BD2068006900F0030028B9AE
:100D7000606A40F4001060620120F3E7206800F52B
:100D8000D87000EB0110006800F0040090609068DB
:100D900040B9206800F5D87000EB01100068400DE4
:100DA000106007E0206800F5D87000EB01100068C3
:100DB000C0085060206800F5D87000EB0110006892
:100DC00000F00200D060206800F5D87000EB011040
:100DD000406800F00F001061206800F5D87000EB4B
:100DE0000110406800F47F40000A9061206800F51F
:100DF000D87000EB01104068000C5061206800F5CD
:100E0000D87000EB011080681870206800F5D87069
:100E100000EB0110806800F47F40000A58702068E1
:100E200000F5D87000EB0110806800F47F00000C22
:100E30009870206800F5D87000EB01108068000EF3
:100E4000D870206800F5D87000E02FE000EB0110AA
:100E5000C0681871206800F5D87000EB0110C068F8
:100E600000F47F40000A5871206800F5D87000EB4C
:100E70000110C06800F47F00000C9871206800F534
:100E8000D87000EB0110C068000ED87131B920682D
:100E9000C06840F020002668F06005E02068006926
:100EA00040F020002668306100205BE7606A40F473
:100EB00080206062012055E70146002091F8202043
:100EC000012A01D0022A11D10B689B6803F08063CC
:100ED00003B1401C0B689B6803F0006303B1401C26
:100EE0000B689B6803F0805303B1401C70472DE9E9
:100EF000F05F04460025206846692068D0F8049019
:100F0000206887682068D0F80CA02068D0F810B05E
:100F10002068D0F8188006F00100002855D007F0AE
:100F20000100C0B101202168886007F0020018B1FB
:100F3000204600F08AFA0EE007F0040010B145F4F4
:100F4000006508E007F0080010B145F4805502E0A4
:100F5000204600F079FA07F48070C8B14FF4807031
:100F60002168886007F4007018B1204600F06FFA1D
:100F70000EE007F4806010B145F4005508E007F476
:100F8000006010B145F4804502E0204600F05EFAB2
:100F900007F48030C8B14FF480302168886007F4CE
:100FA000003018B1204600F054FA0EE007F480201B
:100FB00010B145F4004508E007F4002010B145F4F5
:100FC000803502E0204600F043FA06F0080038B110
:100FD0000AF0100020B145F4007510202168C860A7
:100FE00006F0040040B10AF0080028B1082021688A
:100FF000C860204600F0D8F906F0020038B1206839
:10100000C06800F0030010B1204600F0CFF906F0F0
:10101000400038B10BF0100020B145F4806510207D
:101020002168086106F0200040B10BF0080028B1EB
:10103000082021680861204600F0D4F906F010006D
:1010400038B12068006900F0030010B1204600F0BC
:10105000CAF906F4003040B109F0100028B11020A0
:1010600021684860204600F0BFF906F4803040B1A6
:1010700009F0080028B1082021684860204600F0E7
:10108000E9F906F4004088B309F0040078B306F4E7
:10109000807020B108F0010008B145F0010506F4A8
:1010A000007020B108F0020008B145F0020506F416
:1010B000806020B108F0040008B145F0040506F492
:1010C0000060A0B108F0700088B108F070004028FE
:1010D00017D006DC10280BD020280CD0302819D1CE
:1010E0000CE0502810D0602814D110E01DE019E069
:1010F00045F008050FE045F010050CE045F020052F
:1011000009E045F0400506E045F0800503E045F4C0
:10111000807500E000BF00BF2068806920F070008B
:10112000216888610420216848602DB1606A2843E5
:1011300060622046FFF702FEBDE8F09F70B50446EE
:101140000CB9012070BD94F8200010B9204600F0C1
:10115000CFF82068006840F001002168086000F0C6
:1011600005FC05460DE000F001FC401B0A2808D9EB
:10117000606A40F400306062052084F8200001209D
:10118000E0E72068406800F001000028EBD020680C
:10119000006820F002002168086000F0E7FB0546C7
:1011A0000DE000F0E3FB401B0A2808D9606A40F418
:1011B00000306062052084F820000120C2E720682A
:1011C000406800F002000028EBD1207E012806D103
:1011D0002068006840F080002168086005E0206811
:1011E000006820F0800021680860607E012806D138
:1011F0002068006840F040002168086005E0206831
:10120000006820F0400021680860A07E012806D117
:101210002068006840F020002168086005E0206830
:10122000006820F0200021680860E07E012806D1D7
:101230002068006820F010002168086005E0206840
:10124000006840F0100021680860207F012806D166
:101250002068006840F008002168086005E0206808
:10126000006820F0080021680860607F012806D12E
:101270002068006840F004002168086005E02068EC
:10128000006820F0040021680860D4E902010843E6
:1012900021690843616908436168491E0843216860
:1012A000C86100206062012084F82000002049E726
:1012B00010B504460B492068884212D10A480068DC
:1012C00020F08060084908600846006820F000703F
:1012D00008604FF44051054800F098F9402000F0B4
:1012E000BFFB10BD006800404038024000040240CF
:1012F00010B586B00446142101A8FFF730F827493D
:101300002068884247D100BF002000902448006830
:1013100040F08060224908600846006800F0806064
:10132000009000BF00BF00BF00200090084600688A
:1013300040F0007008600846006800F000700090FF
:1013400000BF00BF00BF00200090154810380068A3
:1013500040F002001249103908600846006800F0A9
:101360000200009000BF00BF4FF4405001900220E7
:10137000029001200390032004900920059001A908
:10138000084800F0F5F900221146402000F09AFBD1
:10139000402000F087FB06B010BD00000068004050
:1013A00040380240000402407047000010B588B089
:1013B000044609492068884208D1084B01AA002147
:1013C0002046FFF7BCFC0548FFF706F9002004495A
:1013D000087008B010BD0000006800400FC0012078
:1013E00017C0012070477047704770B5044694F8E5
:1013F0002000012822D1022084F820002068006803
:1014000020F001002168086000F0B0FA05460DE008
:1014100000F0ACFA401B0A2808D9606A40F400309A
:101420006062052084F82000012070BD20684068BB
:1014300000F001000028EBD16062F6E7606A40F43A
:10144000002060620120F0E77047704770477047E6
:10145000704770477047000070B5044600F086FA88
:1014600006462546681C10B104480078054400BFB4
:1014700000F07CFA801BA842FAD370BD20C0012086
:101480002DE9F04104460E460127002500BF2548FE
:10149000007E012802D10220BDE8F081012021490F
:1014A000087600BF4CF25030FFF77AFA0746002F5B
:1014B00031D1401E3060206801280FD1207C616846
:1014C000FFF7B2F94CF25030FFF76AFA07461648B8
:1014D000006820F00400144908601AE0A56812E0D2
:1014E000217C2846FFF736F94CF25030FFF758FAC6
:1014F00007460D48006820F0FA000B4908600FB15C
:10150000356005E06D1CD4E902100844A842E7D814
:1015100000BFFFF74DF900BF00200249087600BF69
:101520003846B9E7ACD00120103C024003480068BF
:1015300040F000400149086000207047103C024024
:101540002DE9F04106460F4614461D464FF00108AE
:1015500000BF1F48007E012802D10220BDE8F081B3
:1015600001201B49087600BF4CF25030FFF718FAF3
:101570008046B8F1000F23D126B9E1B23846FFF713
:101580006BF912E0012E04D1A1B23846FFF794F9AD
:101590000BE0022E04D121463846FFF7A1F904E002
:1015A00022462B463846FFF769F94CF25030FFF7D8
:1015B000F7F980460748006820F0010005490860F7
:1015C00000BF00200249087600BF4046C6E7000081
:1015D000ACD00120103C024000200949096801F00C
:1015E000004159B10749064A0C3A11600649116099
:1015F0000349096801F0004101B101207047000072
:10160000103C024023016745AB89EFCDF0B50C4695
:10161000002500220023002192E0012606FA01F5B0
:1016200004EA0502AA427DD1474E8F0856F82730BA
:101630008E07370F0F26BE403340444EB04201D1D3
:10164000002623E0424EB04201D101261EE0414E69
:10165000B04201D1022619E03F4EB04201D103262B
:1016600014E03E4EB04201D104260FE03C4EB042A1
:1016700001D105260AE03B4EB04201D1062605E025
:10168000394EB04201D1072600E008268F073F0FF0
:10169000BE409E4222D1354E36689643334F3E605F
:1016A0003E1D366896433F1D3E603E1D366896439C
:1016B0003F1D3E603E1D366896433F1D3E608E07CF
:1016C000370F0F2606FA07F31F4E8F0856F82760CC
:1016D0009E431D4F4FEA910C47F82C6006684FEA75
:1016E000410C032707FA0CF7BE430660CF0800F150
:1016F000200656F827604F074FEAD76C0F2707FAE6
:101700000CF7BE434FEAD10C00F1200747F82C60DC
:10171000C6684FEA410C032707FA0CF7BE43C660C0
:10172000466800E00BE001278F40BE4346608668B4
:101730004FEA410C032707FA0CF7BE438660491CA9
:101740001029FFF46AAFF0BD0838014000000240E4
:101750000004024000080240000C02400010024059
:101760000014024000180240001C0240003C0140EE
:10177000F8B502460B460025002400200021D5E0E4
:10178000012606FA01F51E6806EA0504AC4274D18A
:101790001E7906F00306012E04D01E7906F003061A
:1017A000022E13D190684F000326BE40B0434F0075
:1017B000DE68BE4030439060506801268E40B043E2
:1017C0001E79C6F300168E40304350601E7906F035
:1017D0000306032E09D0D0684F000326BE40B04355
:1017E0004F009E68BE403043D0601E7906F003066D
:1017F000022E13D1CF0802F1200656F827004E071B
:10180000F70E0F26BE40B0434F07FF0E1E69BE40C5
:101810003043CF0802F1200646F8270010684F0039
:101820000326BE40B0431E7906F003064F00BE40BB
:10183000304310605E6806F44036002E75D000BF5D
:10184000002600963B4E366846F48046394F3E608F
:101850003E46366806F48046009600BF00BF364E0E
:101860008F0856F827008E07370F0F26BE40B0436B
:10187000324EB24202D1002624E056E0304EB2424F
:1018800001D101261EE02F4EB24201D1022619E0FD
:101890002D4EB24201D1032614E02C4EB24201D1AA
:1018A00004260FE02A4EB24201D105260AE0294E55
:1018B000B24201D1062605E0274EB24201D10726E9
:1018C00000E008268F073F0FBE4030431A4E8F08B6
:1018D00046F82700214E3068A0435E6806F4803643
:1018E00006B120431D4E3060361D3068A0435E684F
:1018F00006F4003606B12043184E361D3060361D02
:101900003068A0435E6806F4801606B12043134E8B
:1019100008363060361D3068A0435E6806F4001655
:1019200006B120430D4E0C363060491C1029FFF4DF
:1019300027AFF8BD4438024008380140000002409B
:101940000004024000080240000C02400010024067
:101950000014024000180240001C0240003C0140FC
:101960000AB1816101E00B0483617047014800689E
:101970007047000018C00120034800680349097837
:10198000084401490860704718C0012020C00120A8
:1019900010B50D48006840F400700B490860084617
:1019A000006840F4806008600846006840F4807079
:1019B0000860032000F0C4F80F2000F007F800F0E2
:1019C0002BF8002010BD0000003C024070B504461A
:1019D0000E4800784FF47A71B1FBF0F00C490968B9
:1019E000B1FBF0F5284600F0E7FC08B1012070BD1E
:1019F000102C07D200222146501E00F063F8054843
:101A0000046001E00120F2E70020F0E720C001209F
:101A100024C001201CC0012008B500BF0020009098
:101A20000E48006840F480400C4908600846006891
:101A300000F48040009000BF00BF00BF0020009075
:101A4000081F006840F08050091F086008460068C1
:101A500000F08050009000BF00BF08BD4438024035
:101A600010B501460846002817DB00F01F030122CD
:101A70009A400B4B440943F8242000BF00BF00BF2D
:101A8000BFF34F8F00BF00BF00BF00BF00BF00BF4C
:101A9000BFF36F8F00BF00BF00BF00BF10BD0000CD
:101AA00080E100E001460846002809DB00F01F0342
:101AB00001229A4043099B0003F1E023C3F800216F
:101AC00000BF70472DE9F05F80460D46164600279F
:101AD00001F004F8074639462A46334601F007006C
:101AE000C0F1070ABAF1040F02D94FF0040A01E06D
:101AF000C0F1070AD14600F1040ABAF1070F02D279
:101B00004FF0000A01E0A0F1030AD4464FF0010AA9
:101B10000AFA09FAAAF1010A0AEA020A0AFA0CFA0E
:101B20004FF0010B0BFA0CFBABF1010B0BEA030BB3
:101B30004AEA0B042146404600F0D8FFBDE8F09F7A
:101B400000BF00F00702064B19684FF6FF0319406B
:101B5000044B0B4343EA0221014B196000BF70475D
:101B60000CED00E00000FA0570B504460D460CB916
:101B7000012070BD5848006800F00700A84209D253
:101B800055490D700846006800F00700A84201D0D2
:101B90000120EEE7207800F0020002281DD1207815
:101BA00000F00400042805D14C48006840F4E050DF
:101BB0004A490860207800F00800082805D1474805
:101BC000006840F46040454908604448006820F0DF
:101BD000F000A168084341490860207800F0010046
:101BE000A8B36068012807D13C4808380068C0F3F2
:101BF0004040B8B90120BCE76068022802D06068A4
:101C0000032807D1354808380068C0F3406048B958
:101C10000120AEE7314808380068C0F3400008B939
:101C20000120A6E72D48006820F003006168084302
:101C30002A490860FFF79AFE064609E0FFF796FE7C
:101C4000801B41F28831884202D9032091E707E0E6
:101C50002248006800F00C006168B0EB810FEDD104
:101C60001D48006800F00700A84209D91A490D7004
:101C70000846006800F00700A84201D0012078E77C
:101C8000207800F00400042807D11448006820F4EC
:101C9000E050E168084311490860207800F008002E
:101CA000082808D10D48006820F46040216940EA06
:101CB000C1000A49086000F0D9F808490968C1F371
:101CC0000311074A515CC84006490860064800688D
:101CD000FFF77CFE00204CE7003C02400838024041
:101CE0000A2C000824C001201CC0012010B5FFF7F9
:101CF0003DFE04465748006840F001005549086021
:101D000006E0FFF733FE001B022801D9032010BDB7
:101D10005048006800F002000028F2D04D480068EA
:101D200040F080004B490860FFF720FE0446002089
:101D300048490831086008E0FFF718FE001B41F22F
:101D40008831884201D90320E1E742480830006821
:101D500000F00C000028EFD1FFF708FE04463D48D4
:101D6000006820F450203B49086006E0FFF7FEFDC4
:101D7000001B642801D90320C9E73648006800F435
:101D800000300028F2D1FFF7F1FD04463148006829
:101D900020F080702F49086006E0FFF7E7FD001B88
:101DA000022801D90320B2E72A48006800F0007039
:101DB0000028F2D1FFF7DAFD04462648006820F03B
:101DC00080602449086006E0FFF7D0FD001B022870
:101DD00001D903209BE71F48006800F0006000283D
:101DE000F2D11D481B49091D08601C48194984315E
:101DF000086018480C30006820F4F85015490C3180
:101E000008600846006820F4005008600846006832
:101E100040F41F0008600846006840F400100860A5
:101E20000C487430006820F001000A4974310860E1
:101E30000846006840F08070086009480949086059
:101E400009480068FFF7C2FD08B101205FE70020E4
:101E50005DE7000000380240103000040030002030
:101E60000024F40024C001201CC001202DE9F0470B
:101E7000002400250026A1462548006800F00C003B
:101E800020B1042805D008283AD105E0DFF8849075
:101E900039E0DFF8849036E01D48001F006800F04C
:101EA0003F041B48001F006800F4800078B11A4806
:101EB0001749091F0968C1F38811A0FB0170014689
:101EC000224600233846FEF7D3F905460EE01148B6
:101ED0000F49091F0968C1F38811A0FB0170014671
:101EE000224600233846FEF7C3F905460848001F7E
:101EF0000068C0F30140401C4600B5FBF6F902E063
:101F0000DFF8109000BF00BF4846BDE8F087000032
:101F1000083802400024F40000127A00F8B50446A4
:101F20000CB90120F8BD207800F00100002874D021
:101F3000F948006800F00C0004280DD0F64800684D
:101F400000F00C00082813D1F348001F006800F4CB
:101F50008000B0F5800F0BD1EF4808380068C0F35F
:101F60004040002859D06068002856D10120D9E7A8
:101F700000BF6068B0F5803F08D1E74808380068C6
:101F800040F48030E449083908601EE06068B0F52C
:101F9000A02F0DD1E0480838006840F48020DE49C9
:101FA000083908600846006840F4803008600CE09A
:101FB000D9480838006820F48030D74908390860CB
:101FC0000846006820F48020086000BF606890B177
:101FD000FFF7CCFC054606E0FFF7C8FC401B642871
:101FE00001D903209EE7CC4808380068C0F3404080
:101FF0000028F1D011E0FFF7B9FC054606E0FFF735
:10200000B5FC401B642801D903208BE7C24808387F
:102010000068C0F340400028F1D1207800F00200B1
:1020200002285FD1BC48006800F00C0058B1BA48E3
:10203000006800F00C0008281CD1B748001F006899
:1020400000F48000B0B9B44808380068C0F340001C
:1020500020B1E068012801D0012063E7AE480838CC
:10206000006820F0F800216940EAC100AA49083957
:10207000086037E0E06800B30120A8490860FFF776
:1020800075FC054606E0FFF771FC401B022801D9EC
:10209000032047E7A04808380068C0F34000002844
:1020A000F1D09D480838006820F0F800216940EA26
:1020B000C10099490839086014E000209749086078
:1020C000FFF754FC054606E0FFF750FC401B0228D2
:1020D00001D9032026E7904808380068C0F3400083
:1020E0000028F1D1207800F0080008282CD1606980
:1020F000A8B101208A490860FFF738FC054606E0D0
:10210000FFF734FC401B022801D903200AE782486C
:102110006C300068C0F340000028F1D014E00020CB
:102120007F490860FFF722FC054606E0FFF71EFC2A
:10213000401B022801D90320F4E677486C30006880
:10214000C0F340000028F1D1207800F004000428FA
:1021500070D1002770483830006800F0805090B986
:1021600000BF002000906C483830006840F080507C
:102170006949383108600846006800F080500090D6
:1021800000BF00BF01276748006800F48070B0B945
:102190006448006840F4807062490860FFF7E6FB1D
:1021A000054606E0FFF7E2FB401B022801D90320A9
:1021B000B8E65C48006800F480700028F2D000BFE8
:1021C000A068012808D154486830006840F0010038
:1021D0005149683108601DE0A06805280DD14E48BE
:1021E0006830006840F004004B49683108600846D8
:1021F000006840F0010008600CE047486830006863
:1022000020F001004449683108600846006820F069
:102210000400086000BFA068A8B1FFF7A7FB05464F
:1022200009E0FFF7A3FB401B41F28831884202D945
:10223000032077E626E0384868300068C0F34000A5
:102240000028EED013E0FFF791FB054608E0FFF70A
:102250008DFB401B41F28831884201D9032061E6A1
:102260002D4868300068C0F340000028EFD1012FEE
:1022700007D129483830006820F08050264938318D
:10228000086000BFA069002845D02348006800F01E
:102290000C0008285DD0A069022845D100201F4904
:1022A0000866FFF763FB054606E0FFF75FFB401B90
:1022B000022801D9032035E6174808380068C0F322
:1022C00040600028F1D1D4E907010843616A40EA7F
:1022D00081110122A06AC2EB500041EA00412C208A
:1022E000005D41EA00600C49091F086001200B49AC
:1022F0000866FFF73BFB054606E0FFF737FB401B90
:10230000022801D903200DE6034808380068C0F30D
:1023100040600028F1D049E0083802400000474200
:10232000800E474200700040002021490866FFF7F8
:102330001DFB054606E0FFF719FB401B022801D9EB
:102340000320EFE51B480068C0F340600028F2D18D
:102350002CE0A069012800D1E4E51648001D0668BC
:10236000A069012820D006F48001E06981421BD1D8
:1023700006F03F01206A814216D147F6C070304016
:10238000616AB0EB811F0FD106F440310122A06ACF
:10239000C2EB5000B1EB004F06D106F070612C206B
:1023A000005DB1EB006F01D00120BBE50020B9E575
:1023B000000047420038024070B504462546681EBA
:1023C000B0F1807F01D301200FE0681E4FF0E021C3
:1023D00048610F214FF0FF3000F088FB00204FF0E4
:1023E000E021886107200861002070BD70477047B8
:1023F000014691F83D00012801D0012070470220DC
:1024000081F83D000868C06840F001000B68D860A2
:102410001A4B086898421BD00868B0F1804F17D05B
:10242000174B0868984213D0164B086898420FD093
:10243000154B086898420BD0144B0868984207D097
:10244000134B0868984203D0124B086898420CD18D
:102450000868806800F00702062A0CD00868006847
:1024600040F001000B68186005E00868006840F063
:1024700001000B6818600020C0E700000000014068
:102480000004004000080040000C0040000401402F
:102490000040014000180040704710B50446206815
:1024A0000069C0F34000D8B12068C068C0F34000A4
:1024B000B0B16FF002002168086101202077206828
:1024C000806900F0030018B12046FFF7E5FF05E042
:1024D000204600F0ADF8204600F0ABF80020207751
:1024E00020680069C0F38000D8B12068C068C0F3DC
:1024F0008000B0B16FF004002168086102202077ED
:102500002068806900F4407018B12046FFF7C4FFCE
:1025100005E0204600F08CF8204600F08AF8002004
:10252000207720680069C0F3C000D8B12068C06877
:10253000C0F3C000B0B16FF008002168086104204A
:1025400020772068C06900F0030018B12046FFF72B
:10255000A3FF05E0204600F06BF8204600F069F884
:102560000020207720680069C0F30010D8B12068EF
:10257000C068C0F30010B0B16FF0100021680861AE
:10258000082020772068C06900F4407018B1204608
:10259000FFF782FF05E0204600F04AF8204600F0F1
:1025A00048F8002020772068006900F0010058B149
:1025B0002068C06800F0010030B16FF001002168B0
:1025C0000861204600F036F820680069C0F3C010AA
:1025D00058B12068C068C0F3C01030B16FF08000FF
:1025E000216808612046FFF701FF20680069C0F3F9
:1025F000801058B12068C068C0F3801030B16FF00F
:10260000400021680861204600F028F82068006931
:10261000C0F3401058B12068C068C0F3401030B11A
:102620006FF02000216808612046FFF7E0FE10BD32
:1026300070477047074988420AD107490978491C01
:10264000054A117011460978282901DD28211170E9
:102650007047000064D0012017C00120704700BF00
:10266000FEE7000070B50546286821490840B0F132
:10267000005F3CD11F48FEF71BFEFFF737FB72B629
:102680001D48006820F001001B49086008460068EA
:1026900020F0020008600846006820F0040008608E
:1026A0000846006820F080000860012080F3108850
:1026B00000BF002409E04FF0FF31104840F824101B
:1026C0000F4840F82410601CC4B2082CF3DB002033
:1026D0004FF0E02108614861886162B6002080F314
:1026E000108800BF6E682868FDF79EFDB04770BD7A
:1026F0000000FE2F3CD001203038024080E100E095
:1027000080E200E02DE9F05F82468B4616461F46C8
:102710004FF000093446C84613E0E0780506A0787B
:1027200045EA0045607845EA002520780543241DE8
:102730004846411C1FFA81F9094941F8205008F127
:102740000408B845E9D34B46054A5946504600F0BF
:102750007BF818B14FF0FF30BDE8F09F0020FBE799
:1027600028C0012010B50D480D49086006204860BA
:1027700000210B488160C1604FF400310161090103
:1027800041610021017641768176C17601774177FA
:10279000FEF7D4FC08B1FDF7DAFF10BD0068004079
:1027A0003CD0012000B587B0142102A8FDF7D7FD69
:1027B00000BF002001901E48006840F080001C49C6
:1027C00008600846006800F08000019000BF00BF6C
:1027D00000BF002001900846006840F0010008603A
:1027E0000846006800F00100019000BF00BF00BF74
:1027F000002001900846006840F00200086008468A
:10280000006800F00200019000BF00BF002201211B
:102810000848FFF7A5F801200290039000200490DB
:10282000059002A90348FEF7A3FF07B000BD000012
:10283000303802400000024000BFFEE700BFFEE764
:1028400070470146087870472DE9F04F87B08346FE
:102850000C46164698464FF00009CA4600200690DE
:10286000059000250490039000270290019001201C
:102870000090B4F1006F02D304F0030018B10020FF
:1028800007B0BDE8F08FFEF7A7FE4648006820F4C9
:10289000806044490860F32042490C310860A14639
:1028A00004EB880A4846FEF7ADF806905046FEF75E
:1028B000A9F80699401A401C059000203A49086082
:1028C00002200861069888600598C86004A9364807
:1028D000FEF7D6FD00900AE0781C47B24CF250306B
:1028E000FEF75EF804A93048FEF7CAFD0090009894
:1028F00008B1032FF0DB4CF25030FEF751F800988E
:1029000018B14FF0FF3003903CE04D46FEF764FEF7
:10291000002718E0D6F800C06246002329460220AE
:10292000FEF70EFE10B1781C47B206E000272D1D01
:102930003168019808440190361D022F03DD4FF0E5
:10294000FF30039001E05545E4D300BF254604E085
:1029500029680298084402902D1D5545F8D3DDE9F9
:102960000110884203D04FF0FF30039009E0552258
:10297000002359461846FEF7E3FD10B14FF0FF3033
:10298000039000BF0748006840F480600549086074
:10299000FEF7CCFD0398401C10B94FF0FF306FE7F5
:1029A00000206DE7003C024028D00120704710B5A0
:1029B000FEF7E2FF10BD000000B593B0302107A87C
:1029C000FDF7CDFC142102A8FDF7C9FC00BF0020D3
:1029D00001902448006840F0805022490860084671
:1029E000006800F08050019000BF00BF00BF0020D1
:1029F00001901D48006840F480401B49086008466B
:102A0000006800F48040019000BF00BF01200790E3
:102A10000004089002200D9041050E9104210F91B1
:102A2000A8211091022111910421129107A8FFF70A
:102A300075FA08B1FDF78BFE0F200290022003907B
:102A4000002004904FF4A05005904FF48050069061
:102A5000052102A8FFF788F808B1FDF778FE13B04A
:102A600000BD00004038024000700040034800688C
:102A700040F47000014908607047000088ED00E0F4
:102A800010B50248FFF709FD10BD000064D0012019
:102A900000BFFEE730B50246002000BF17E0145C1F
:102AA0000C4BB3F8B0380C4DEC540A4BB3F8B038BB
:102AB0005B1C9CB2074BA3F8B048B3F8C038145C59
:102AC00023449CB2034BA3F8C048431CD8B28842AD
:102AD000E5DB30BD00300020002000200248006807
:102AE000C0F30220704700000CED00E010B5002894
:102AF00004DB0A07130E054A135406E00A07140EF6
:102B0000034A00F00F031B1FD45410BD00E400E083
:102B100018ED00E0FEF73CFFFFF74EFF2D48FFF7F2
:102B200090FE2D4908702B48001DFFF78AFE2B49A7
:102B30000870FFF737FEFFF715FE2948FFF758FC2E
:102B40002848FDF7D9FC002027490870274908705C
:102B50003FE021480078552803D11E488030FFF718
:102B600081FD22480078012833D100201F490870D8
:102B70001D4800781E49C871012208211C48FDF734
:102B8000F1FC19480078012804D1012211461948A6
:102B9000FEF7E6FE1848007802281AD100201649F0
:102BA00008706420FEF758FC1448B0F8B038A0F55F
:102BB0008052084980310748FFF7A4FD20B9054835
:102BC0008030FFF74FFD04E0002201210948FEF7A5
:102BD000C7FEBEE7000001080DC001200EC00120A5
:102BE00064D001203CD001200BC001200CC001208A
:102BF00003C001200000024002C00120003000207C
:102C00004FF04070E1EE100A704700000000000035
:102C10000000010203040607080900000000010289
:102C200003040000442C000800C00120280000001C
:102C3000C40100086C2C000828C0012008170000FF
:102C4000E001000800070000000000000000000094
:102C50000000000000000000000000000000000074
:0C2C600010000000010000000024F4003F
:040000050800018965
:00000001FF
